:1000000023C032C031C030C02FC02EC02DC02CC084
:100010002BC02AC029C008C127C026C025C024C0C3
:1000200023C022C021C020C01FC01EC01DC01CC0D4
:100030001BC01AC019C018C017C016C0010204089E
:10004000102040800402010811241FBECFEFD2E02F
:10005000DEBFCDBF21E0A0E0B1E001C01D92A9301C
:10006000B207E1F72BD1C1C1CBCFE0E4F0E0E491DE
:1000700089B3E82381E090E011F490E080E00895F6
:10008000E82FF0E0E45CFF4FE491833019F48FB582
:100090008F7C8FBD9E2F90952FB761110BC0F89468
:1000A0008BB389238BBB809163008923809363008A
:1000B0002FBF0895F8948BB3E82BEBBBF4CFE82F58
:1000C000F0E0E45CFF4FE4918E2F80959FB76230A3
:1000D00071F4F8942AB382238ABB8BB38E2B8BBB2B
:1000E00080916300E82BE09363009FBF0895F8942C
:1000F000209163008223809363008AB3E82BEABBDC
:10010000F4CF3FB7F8948091050190910601A0913A
:100110000701B091080122B708B600FE05C02F3FC5
:1001200019F00196A11DB11D3FBFBA2FA92F982F1D
:100130008827BC01CD01620F711D811D911D43E017
:10014000660F771F881F991F4A95D1F70895CF92A0
:10015000DF92EF92FF92CF93DF936B017C01D1DFAF
:10016000EB01CFDF6C1B7D0B683E7340A0F0C11428
:10017000D104E104F10439F4DF91CF91FF90EF90C5
:10018000DF90CF90089581E0C81AD108E108F10806
:10019000C851DC4FE6CFC114D104E104F10409F7E2
:1001A000EBCFBF92CF92DF92EF92FF920F931F930C
:1001B000CF93DF93B82E8FB7F894C0900101D09001
:1001C0000201E0900301F09004018FBF0CE91FE0F1
:1001D000C4ECD0E02FB7F894809101019091020116
:1001E000A0910301B09104012FBF8C199D09AE09A4
:1001F000BF090597A105B10568F461E08B2D40DFCB
:10020000C8010197F1F760E08B2D3ADFCE0101972D
:10021000F1F7E0CFDF91CF911F910F91FF90EF9019
:10022000DF90CF90BF9008951F920F920FB60F925C
:1002300011242F933F938F939F93AF93BF938091FC
:10024000010190910201A0910301B091040130914C
:10025000000126E0230F2D3768F129E8230F0396CC
:10026000A11DB11D20930001809301019093020113
:10027000A0930301B09304018091050190910601C0
:10028000A0910701B09108010196A11DB11D8093B5
:10029000050190930601A0930701B0930801BF9157
:1002A000AF919F918F913F912F910F900FBE0F9023
:1002B0001F9018950296A11DB11DD4CF81E2E1E0F7
:1002C000F0E0809357008491815080937400000087
:1002D000789480B7836080BF83B7877F83BF83B7FD
:1002E000887F836083BF89B7816089BF8091C9009F
:1002F000887F8093C9008091CA008C7F8160809341
:10030000CA008091C900877E8093C9008091C9008E
:10031000887F83608093C9008EB5887F8EBD8FB53E
:100320008C7F81608FBD8EB5877E8EBD8EB5887FB8
:1003300083608EBD80E18093670084EA80936800CB
:100340008CEF8093660085B1887F866085B92F9A8F
:1003500061E081E0B4DE61E082E0B1DE61E083E093
:10036000AEDE62E084E0ABDE62E085E0A8DE60E065
:1003700081E086DE60E082E083DE60E083E080DEB4
:1003800074DE892BE9F771DE892B31F461E070E0CE
:1003900080E090E0DCDEF7CF83E0C82ED12CE12CAA
:1003A000F12C81E0FEDE60E081E06ADEC701B6018B
:1003B000CEDE82E0F6DE60E082E062DEC701B601FA
:1003C000C6DE83E0EEDE60E083E05ADEC701B60100
:1003D000BEDE83E0C80ED11CE11CF11C81E2C81610
:0E03E000D104E104F104E9F6CBCFF894FFCF8D
:00000001FF
