:1000000023C032C031C030C02FC02EC02DC02CC084
:100010002BC02AC029C0C9C027C026C025C024C003
:1000200023C022C021C020C01FC01EC01DC01CC0D4
:100030001BC01AC019C018C017C016C0010204089E
:10004000102040800402010811241FBECFEFD2E02F
:10005000DEBFCDBF21E0A0E0B1E001C01D92A7311D
:10006000B207E1F7ECD041C2CBCFCF93DF9386FF4D
:1000700006C08F73893018F08B3091F08150E82FD3
:10008000F0E0E45CFF4FE491883088F4843051F470
:1000900080B78F7380BFCBE3D0E0A3E6B0E013C09E
:1000A00089E0EDCF8530F9F480B78F7CF3CF92E013
:1000B0008630D9F48FB58F738FBD913061F3C8E36B
:1000C000D0E0A2E6B0E09E2F90952FB7611120C03E
:1000D000F8948881892388838C9189238C932FBFFE
:1000E000DF91CF91089591E0E3CF833019F48FB57C
:1000F0008F7CE2CF883031F48091CA008F73809377
:10010000CA00DBCF8730C9F68091CA008F7CF7CF59
:10011000F8948881E82BE883DFCFE82FF0E0E45CF7
:10012000FF4FE4918E2F80959FB7623071F4F89461
:100130002AB382238ABB8BB38E2B8BBB8091630047
:10014000E82BE09363009FBF0895F894209163002B
:100150008223809363008AB3E82BEABBF4CF3FB7D6
:10016000F8948091130190911401A0911501B09120
:10017000160122B708B600FE05C02F3F19F0019600
:10018000A11DB11D3FBFBA2FA92F982F8827BC01F1
:10019000CD01620F711D811D911D43E0660F771F18
:1001A000881F991F4A95D1F708951F920F920FB695
:1001B0000F9211242F933F938F939F93AF93BF93ED
:1001C00080910F0190911001A0911101B091120145
:1001D00030910E0126E0230F2D3768F129E8230F17
:1001E0000396A11DB11D20930E0180930F019093E2
:1001F0001001A0931101B09312018091130190910D
:100200001401A0911501B09116010196A11DB11D17
:100210008093130190931401A0931501B0931601DC
:10022000BF91AF919F918F913F912F910F900FBEF2
:100230000F901F9018950296A11DB11DD4CF81E299
:10024000E1E0F0E080935700849181508093740046
:100250000000789480B7836080BF83B7877F83BFB7
:1002600083B7887F836083BF89B7816089BF8091AE
:10027000C900887F8093C9008091CA008C7F81600B
:100280008093CA008091C900877E8093C9008091C5
:10029000C900887F83608093C9008EB5887F8EBD3A
:1002A0008FB58C7F81608FBD8EB5877E8EBD8EB5FC
:1002B000887F83608EBD80E18093670084EA8093AD
:1002C00068008CEF8093660085B1887F866085B971
:1002D0002F9A61E081E021DF61E082E01EDF61E0D2
:1002E00083E01BDF62E084E018DF62E085E015DF79
:1002F00060E081E0BADE60E082E0B7DE60E083E0EB
:10030000B4DE01E010E083E0882E912C92E0A92E6B
:10031000B12C20E4222E20E0322EC0910C01D0918D
:100320000D011C161D060CF050C019DF6B017C017D
:100330008091080190910901A0910A01B0910B01EF
:100340008C159D05AE05BF0508F03FC080910001EA
:1003500090910101892B09F094C060E08C2F85DE1B
:10036000109301010093000140900201509003019D
:10037000609004017090050123E030E040E050E01F
:10038000C301B20199D09E010D2E000C440B550BF8
:10039000620F731F841F951F28EE33E040E050E08A
:1003A0008BD0C60ED71EE81EF91EC0920801D0924F
:1003B0000901E0920A01F0920B01C130D10509F068
:1003C0003CC0B0920D01A0920C01F101849199B34F
:1003D000892309F46CC08091060190910701892B53
:1003E00009F49BCF80910C0190910D0110920201B4
:1003F000109203011092040110920501892B39F427
:1004000010930D0100930C0161E081E02EDE10924B
:10041000010110920001A3DE68577C4E8F4F9F4F61
:10042000609308017093090180930A0190930B0176
:10043000109207011092060170CF229729F4909232
:100440000D0180920C01C1CF8FEF481A580A680A3B
:10045000780A409202015092030160920401709266
:100460000501EFE04E1651046104710428F010926A
:100470000D0110920C01A9CF10930D0100930C01F6
:10048000A4CF61E08C2FF1DDF8E8CF0EF3E1DF1EA1
:10049000E11CF11CC0920801D0920901E0920A010E
:1004A000F0920B0110920101109200018ECF109377
:1004B00007010093060131CFEE27FF27AA27BB27AC
:1004C00008C0A20FB31FE41FF51F220F331F441FE4
:1004D000551F969587957795679598F37040A9F77E
:0E04E000009799F7BD01CF010895F894FFCF62
:00000001FF
