:1000000023C01EC131C030C02FC02EC02DC02CC097
:100010002BC02AC029C0CAC027C026C025C024C002
:1000200023C022C021C020C01FC01EC01DC01CC0D4
:100030001BC01AC019C018C017C016C0010204089E
:10004000102040800402010811241FBECFEFD2E02F
:10005000DEBFCDBF21E0A0E0B1E001C01D92A9311B
:10006000B207E1F71AD17BC2CBCFCF93DF9386FFE4
:1000700006C08F73893018F08B3091F08150E82FD3
:10008000F0E0E45CFF4FE491883088F4843051F470
:1000900080B78F7380BFCBE3D0E0A3E6B0E013C09E
:1000A00089E0EDCF8530F9F480B78F7CF3CF92E013
:1000B0008630D9F48FB58F738FBD913061F3C8E36B
:1000C000D0E0A2E6B0E09E2F90952FB7611120C03E
:1000D000F8948881892388838C9189238C932FBFFE
:1000E000DF91CF91089591E0E3CF833019F48FB57C
:1000F0008F7CE2CF883031F48091CA008F73809377
:10010000CA00DBCF8730C9F68091CA008F7CF7CF59
:10011000F8948881E82BE883DFCFE82FF0E0E45CF7
:10012000FF4FE4918E2F80959FB7623071F4F89461
:100130002AB382238ABB8BB38E2B8BBB8091630047
:10014000E82BE09363009FBF0895F894209163002B
:100150008223809363008AB3E82BEABBF4CF3FB7D6
:10016000F8948091150190911601A0911701B0911A
:10017000180122B708B600FE05C02F3F19F00196FE
:10018000A11DB11D3FBFBA2FA92F982F8827BC01F1
:10019000CD01620F711D811D911D43E0660F771F18
:1001A000881F991F4A95D1F7089508951F920F92BD
:1001B0000FB60F9211242F933F938F939F93AF937A
:1001C000BF938091110190911201A0911301B09100
:1001D00014013091100126E0230F2D3768F129E832
:1001E000230F0396A11DB11D2093100180931101CF
:1001F00090931201A0931301B09314018091150103
:1002000090911601A0911701B09118010196A11DBE
:10021000B11D8093150190931601A0931701B0931F
:100220001801BF91AF919F918F913F912F910F90A6
:100230000FBE0F901F9018950296A11DB11DD4CF2F
:100240001F920F920FB60F9211242F933F934F934B
:100250005F936F937F938F939F93AF93BF93EF932E
:10026000FF938091000190910101892B29F0E09189
:100270000001F09101010995FF91EF91BF91AF91BC
:100280009F918F917F916F915F914F913F912F91AE
:100290000F900FBE0F901F90189581E2E1E0F0E003
:1002A000809357008491815080937400000078946B
:1002B00080B7836080BF83B7877F83BF83B7887F22
:1002C000836083BF89B7816089BF8091C900887FBF
:1002D0008093C9008091CA008C7F81608093CA009E
:1002E0008091C900877E8093C9008091C900887F72
:1002F00083608093C9008EB5887F8EBD8FB58C7F5B
:1003000081608FBD8EB5877E8EBD8EB5887F836000
:100310008EBD80E18093670084EA809368008CEF53
:100320008093660085B1887F866085B92F9A61E0E9
:1003300081E0F3DE61E082E0F0DE61E083E0EDDEAB
:1003400062E084E0EADE62E085E0E7DE60E081E032
:100350008CDE60E082E089DE60E083E086DE01E042
:1003600010E083E0882E912C92E0A92EB12C20E49D
:10037000222E20E0322EC0910E01D0910F011C16CA
:100380001D060CF050C0EBDE6B017C0180910A0170
:1003900090910B01A0910C01B0910D018C159D0560
:1003A000AE05BF0508F03FC08091020190910301A6
:1003B000892B09F094C060E08C2F57DE1093030165
:1003C00000930201409004015090050160900601E5
:1003D0007090070123E030E040E050E0C301B2013B
:1003E000A5D09E010D2E000C440B550B620F731F00
:1003F000841F951F26EB33E040E050E097D0C60EF7
:10040000D71EE81EF91EC0920A01D0920B01E0929D
:100410000C01F0920D01C130D10509F03CC0B09241
:100420000F01A0920E01F101849199B3892309F47F
:100430006CC08091080190910901892B09F469C071
:10044000109204011092050110920601109207010A
:1004500080910E0190910F01892B39F410930F01B7
:1004600000930E0161E081E000DE10920301109222
:10047000020175DE68577C4E8F4F9F4F60930A01D3
:1004800070930B0180930C0190930D011092090160
:10049000109208013EC0229729F490920F01809299
:1004A0000E01C1CF8FEF481A580A680A780A4092A5
:1004B0000401509205016092060170920701ECE080
:1004C0004E1651046104710428F010920F0110922D
:1004D0000E01A9CF10930F0100930E01A4CF61E08C
:1004E0008C2FC3DDF8E8CF0EF3E1DF1EE11CF11C19
:1004F000C0920A01D0920B01E0920C01F0920D0122
:1005000010920301109202018ECF10930901009303
:10051000080115B885B7877E806185BF85B7806281
:1005200085BF889585B78F7D85BF25CFEE27FF27AF
:10053000AA27BB2708C0A20FB31FE41FF51F220F75
:10054000331F441F551F969587957795679598F3A8
:100550007040A9F7009799F7BD01CF010895F8946D
:02056000FFCFCB
:00000001FF
